2023-09-14 15:10:55,024 : (Core) S >> 8=FIX.4.2|9=64|35=5|34=7|49=RSIT_EDP_2|52=20230914-06:10:55.000|56=FSX_SIT_EDP|10=088|
2023-09-14 15:10:55,094 : (Core) S >> 8=FIX.4.2|9=83|35=A|34=1|49=RSIT_EDP_2|52=20230914-06:10:55.000|56=FSX_SIT_EDP|98=0|108=300|141=Y|10=213|
2023-09-14 15:10:57,251 : -------------------------------------------------------------------------------------------------
2023-09-14 15:10:57,251 : (sendMsg) New Ack >> 8=FIX.4.2|9=210|35=D|34=2|49=RSIT_EDP_2|52=20230914-06:10:57.000|56=FSX_SIT_EDP|1=RSIT_ACCOUNT_2|11=16946718574872000001|38=100|40=1|47=P|54=2|55=1305|59=3|60=20230914-06:10:57.251152|110=0|544=1|8060=3|8164=EDP|8174=0|8214=0|10=053|
2023-09-14 15:11:00,211 : FixMsg is OK
2023-09-14 15:11:00,226 : execType is OK
2023-09-14 15:11:00,239 : 两个文件记录数量不一致，预期数量：1，实际数量：0！
2023-09-14 15:11:55,482 : (Core) S >> 8=FIX.4.2|9=83|35=A|34=1|49=RSIT_EDP_2|52=20230914-06:11:55.000|56=FSX_SIT_EDP|98=0|108=300|141=Y|10=214|
2023-09-14 15:12:00,583 : FixMsg is OK
2023-09-14 15:12:00,598 : execType is OK
2023-09-14 15:12:00,610 : 两个文件记录数量不一致，预期数量：1，实际数量：0！
